{
  "_format": "hh-sol-artifact-1",
  "contractName": "PredictionMarket",
  "sourceName": "contracts/PredictionMarket.sol",
  "abi": [
    {
      "inputs": [
        {
          "internalType": "address",
          "name": "_oracle",
          "type": "address"
        }
      ],
      "stateMutability": "nonpayable",
      "type": "constructor"
    },
    {
      "inputs": [
        {
          "internalType": "enum PredictionMarket.Side",
          "name": "_side",
          "type": "uint8"
        }
      ],
      "name": "bet",
      "outputs": [],
      "stateMutability": "payable",
      "type": "function"
    },
    {
      "inputs": [
        {
          "internalType": "enum PredictionMarket.Side",
          "name": "",
          "type": "uint8"
        }
      ],
      "name": "betsPerCandidate",
      "outputs": [
        {
          "internalType": "uint256",
          "name": "",
          "type": "uint256"
        }
      ],
      "stateMutability": "view",
      "type": "function"
    },
    {
      "inputs": [
        {
          "internalType": "address",
          "name": "",
          "type": "address"
        },
        {
          "internalType": "enum PredictionMarket.Side",
          "name": "",
          "type": "uint8"
        }
      ],
      "name": "betsPerGambler",
      "outputs": [
        {
          "internalType": "uint256",
          "name": "",
          "type": "uint256"
        }
      ],
      "stateMutability": "view",
      "type": "function"
    },
    {
      "inputs": [],
      "name": "electionFinished",
      "outputs": [
        {
          "internalType": "bool",
          "name": "",
          "type": "bool"
        }
      ],
      "stateMutability": "view",
      "type": "function"
    },
    {
      "inputs": [],
      "name": "getAvgBetAmount",
      "outputs": [
        {
          "internalType": "uint256",
          "name": "",
          "type": "uint256"
        }
      ],
      "stateMutability": "view",
      "type": "function"
    },
    {
      "inputs": [
        {
          "internalType": "enum PredictionMarket.Side",
          "name": "_side",
          "type": "uint8"
        }
      ],
      "name": "getBetAmount",
      "outputs": [
        {
          "internalType": "uint256",
          "name": "",
          "type": "uint256"
        }
      ],
      "stateMutability": "view",
      "type": "function"
    },
    {
      "inputs": [
        {
          "internalType": "address",
          "name": "_gambler",
          "type": "address"
        }
      ],
      "name": "getBetAmountByGambler",
      "outputs": [
        {
          "internalType": "uint256",
          "name": "",
          "type": "uint256"
        },
        {
          "internalType": "uint256",
          "name": "",
          "type": "uint256"
        }
      ],
      "stateMutability": "view",
      "type": "function"
    },
    {
      "inputs": [],
      "name": "getTotalBets",
      "outputs": [
        {
          "internalType": "uint256",
          "name": "",
          "type": "uint256"
        }
      ],
      "stateMutability": "view",
      "type": "function"
    },
    {
      "inputs": [],
      "name": "getTotalVolume",
      "outputs": [
        {
          "internalType": "uint256",
          "name": "",
          "type": "uint256"
        }
      ],
      "stateMutability": "view",
      "type": "function"
    },
    {
      "inputs": [],
      "name": "oracle",
      "outputs": [
        {
          "internalType": "address",
          "name": "",
          "type": "address"
        }
      ],
      "stateMutability": "view",
      "type": "function"
    },
    {
      "inputs": [
        {
          "internalType": "enum PredictionMarket.Side",
          "name": "_winner",
          "type": "uint8"
        },
        {
          "internalType": "enum PredictionMarket.Side",
          "name": "_loser",
          "type": "uint8"
        }
      ],
      "name": "report",
      "outputs": [],
      "stateMutability": "nonpayable",
      "type": "function"
    },
    {
      "inputs": [],
      "name": "result",
      "outputs": [
        {
          "internalType": "enum PredictionMarket.Side",
          "name": "winner",
          "type": "uint8"
        },
        {
          "internalType": "enum PredictionMarket.Side",
          "name": "loser",
          "type": "uint8"
        }
      ],
      "stateMutability": "view",
      "type": "function"
    },
    {
      "inputs": [],
      "name": "totalBets",
      "outputs": [
        {
          "internalType": "uint256",
          "name": "",
          "type": "uint256"
        }
      ],
      "stateMutability": "view",
      "type": "function"
    },
    {
      "inputs": [],
      "name": "withdraw",
      "outputs": [],
      "stateMutability": "nonpayable",
      "type": "function"
    }
  ],
  "bytecode": "0x608060405234801561001057600080fd5b506040516114f63803806114f6833981810160405281019061003291906100dc565b80600460006101000a81548173ffffffffffffffffffffffffffffffffffffffff021916908373ffffffffffffffffffffffffffffffffffffffff16021790555050610109565b600080fd5b600073ffffffffffffffffffffffffffffffffffffffff82169050919050565b60006100a98261007e565b9050919050565b6100b98161009e565b81146100c457600080fd5b50565b6000815190506100d6816100b0565b92915050565b6000602082840312156100f2576100f1610079565b5b6000610100848285016100c7565b91505092915050565b6113de806101186000396000f3fe6080604052600436106100dd5760003560e01c80639d5a37391161007f578063beab6e7e11610059578063beab6e7e146102c4578063befa1e2f146102ef578063d0821b0e1461031a578063f0706a0614610336576100dd565b80639d5a373914610233578063a3cb679d14610270578063ab6caf1d1461029b576100dd565b80633ccfd60b116100bb5780633ccfd60b14610187578063653721471461019e5780636a70b5e0146101ca5780637dc0d1d014610208576100dd565b80630b9d98e9146100e25780632462958d1461010d57806328b3f3ae1461014a575b600080fd5b3480156100ee57600080fd5b506100f7610361565b6040516101049190610c66565b60405180910390f35b34801561011957600080fd5b50610134600480360381019061012f9190610cab565b6103e2565b6040516101419190610c66565b60405180910390f35b34801561015657600080fd5b50610171600480360381019061016c9190610cab565b6103fa565b60405161017e9190610c66565b60405180910390f35b34801561019357600080fd5b5061019c61043b565b005b3480156101aa57600080fd5b506101b36107c0565b6040516101c1929190610d4f565b60405180910390f35b3480156101d657600080fd5b506101f160048036038101906101ec9190610dd6565b6107ec565b6040516101ff929190610e03565b60405180910390f35b34801561021457600080fd5b5061021d6108e2565b60405161022a9190610e3b565b60405180910390f35b34801561023f57600080fd5b5061025a60048036038101906102559190610e56565b610908565b6040516102679190610c66565b60405180910390f35b34801561027c57600080fd5b5061028561092d565b6040516102929190610c66565b60405180910390f35b3480156102a757600080fd5b506102c260048036038101906102bd9190610e96565b610937565b005b3480156102d057600080fd5b506102d9610aa3565b6040516102e69190610ef1565b60405180910390f35b3480156102fb57600080fd5b50610304610ab6565b6040516103119190610c66565b60405180910390f35b610334600480360381019061032f9190610cab565b610abc565b005b34801561034257600080fd5b5061034b610c31565b6040516103589190610c66565b60405180910390f35b60006002600060018081111561037a57610379610cd8565b5b600181111561038c5761038b610cd8565b5b815260200190815260200160002054600260008060018111156103b2576103b1610cd8565b5b60018111156103c4576103c3610cd8565b5b8152602001908152602001600020546103dd9190610f3b565b905090565b60026020528060005260406000206000915090505481565b60006002600083600181111561041357610412610cd8565b5b600181111561042557610424610cd8565b5b8152602001908152602001600020549050919050565b6000600360003373ffffffffffffffffffffffffffffffffffffffff1673ffffffffffffffffffffffffffffffffffffffff16815260200190815260200160002060008060000160009054906101000a900460ff1660018111156104a2576104a1610cd8565b5b60018111156104b4576104b3610cd8565b5b815260200190815260200160002054905060008111610508576040517f08c379a00000000000000000000000000000000000000000000000000000000081526004016104ff90610fcc565b60405180910390fd5b60011515600160009054906101000a900460ff1615151461055e576040517f08c379a000000000000000000000000000000000000000000000000000000000815260040161055590611038565b60405180910390fd5b6000600260008060000160009054906101000a900460ff16600181111561058857610587610cd8565b5b600181111561059a57610599610cd8565b5b81526020019081526020016000205482600260008060000160019054906101000a900460ff1660018111156105d2576105d1610cd8565b5b60018111156105e4576105e3610cd8565b5b8152602001908152602001600020546105fd9190611058565b61060791906110c9565b826106129190610f3b565b90506000600360003373ffffffffffffffffffffffffffffffffffffffff1673ffffffffffffffffffffffffffffffffffffffff168152602001908152602001600020600080600181111561066a57610669610cd8565b5b600181111561067c5761067b610cd8565b5b8152602001908152602001600020819055506000600360003373ffffffffffffffffffffffffffffffffffffffff1673ffffffffffffffffffffffffffffffffffffffff16815260200190815260200160002060006001808111156106e4576106e3610cd8565b5b60018111156106f6576106f5610cd8565b5b81526020019081526020016000208190555060003373ffffffffffffffffffffffffffffffffffffffff168260405161072e9061112b565b60006040518083038185875af1925050503d806000811461076b576040519150601f19603f3d011682016040523d82523d6000602084013e610770565b606091505b5050905060011515811515146107bb576040517f08c379a00000000000000000000000000000000000000000000000000000000081526004016107b29061118c565b60405180910390fd5b505050565b60008060000160009054906101000a900460ff16908060000160019054906101000a900460ff16905082565b600080600360008473ffffffffffffffffffffffffffffffffffffffff1673ffffffffffffffffffffffffffffffffffffffff168152602001908152602001600020600080600181111561084357610842610cd8565b5b600181111561085557610854610cd8565b5b815260200190815260200160002054600360008573ffffffffffffffffffffffffffffffffffffffff1673ffffffffffffffffffffffffffffffffffffffff16815260200190815260200160002060006001808111156108b8576108b7610cd8565b5b60018111156108ca576108c9610cd8565b5b81526020019081526020016000205491509150915091565b600460009054906101000a900473ffffffffffffffffffffffffffffffffffffffff1681565b6003602052816000526040600020602052806000526040600020600091509150505481565b6000600554905090565b600460009054906101000a900473ffffffffffffffffffffffffffffffffffffffff1673ffffffffffffffffffffffffffffffffffffffff163373ffffffffffffffffffffffffffffffffffffffff16146109c7576040517f08c379a00000000000000000000000000000000000000000000000000000000081526004016109be9061121e565b60405180910390fd5b8060018111156109da576109d9610cd8565b5b8260018111156109ed576109ec610cd8565b5b03610a2d576040517f08c379a0000000000000000000000000000000000000000000000000000000008152600401610a24906112b0565b60405180910390fd5b816000800160006101000a81548160ff02191690836001811115610a5457610a53610cd8565b5b0217905550806000800160016101000a81548160ff02191690836001811115610a8057610a7f610cd8565b5b021790555060018060006101000a81548160ff0219169083151502179055505050565b600160009054906101000a900460ff1681565b60055481565b60001515600160009054906101000a900460ff16151514610b12576040517f08c379a0000000000000000000000000000000000000000000000000000000008152600401610b099061131c565b60405180910390fd5b60003411610b55576040517f08c379a0000000000000000000000000000000000000000000000000000000008152600401610b4c90611388565b60405180910390fd5b3460026000836001811115610b6d57610b6c610cd8565b5b6001811115610b7f57610b7e610cd8565b5b81526020019081526020016000206000828254610b9c9190610f3b565b9250508190555034600360003373ffffffffffffffffffffffffffffffffffffffff1673ffffffffffffffffffffffffffffffffffffffff1681526020019081526020016000206000836001811115610bf857610bf7610cd8565b5b6001811115610c0a57610c09610cd8565b5b81526020019081526020016000206000828254610c279190610f3b565b9250508190555050565b6000600554610c3e610361565b610c4891906110c9565b905090565b6000819050919050565b610c6081610c4d565b82525050565b6000602082019050610c7b6000830184610c57565b92915050565b600080fd5b60028110610c9357600080fd5b50565b600081359050610ca581610c86565b92915050565b600060208284031215610cc157610cc0610c81565b5b6000610ccf84828501610c96565b91505092915050565b7f4e487b7100000000000000000000000000000000000000000000000000000000600052602160045260246000fd5b60028110610d1857610d17610cd8565b5b50565b6000819050610d2982610d07565b919050565b6000610d3982610d1b565b9050919050565b610d4981610d2e565b82525050565b6000604082019050610d646000830185610d40565b610d716020830184610d40565b9392505050565b600073ffffffffffffffffffffffffffffffffffffffff82169050919050565b6000610da382610d78565b9050919050565b610db381610d98565b8114610dbe57600080fd5b50565b600081359050610dd081610daa565b92915050565b600060208284031215610dec57610deb610c81565b5b6000610dfa84828501610dc1565b91505092915050565b6000604082019050610e186000830185610c57565b610e256020830184610c57565b9392505050565b610e3581610d98565b82525050565b6000602082019050610e506000830184610e2c565b92915050565b60008060408385031215610e6d57610e6c610c81565b5b6000610e7b85828601610dc1565b9250506020610e8c85828601610c96565b9150509250929050565b60008060408385031215610ead57610eac610c81565b5b6000610ebb85828601610c96565b9250506020610ecc85828601610c96565b9150509250929050565b60008115159050919050565b610eeb81610ed6565b82525050565b6000602082019050610f066000830184610ee2565b92915050565b7f4e487b7100000000000000000000000000000000000000000000000000000000600052601160045260246000fd5b6000610f4682610c4d565b9150610f5183610c4d565b9250828201905080821115610f6957610f68610f0c565b5b92915050565b600082825260208201905092915050565b7f596f7520646f6e2774206861766520616e792077696e6e696e67206265740000600082015250565b6000610fb6601e83610f6f565b9150610fc182610f80565b602082019050919050565b60006020820190508181036000830152610fe581610fa9565b9050919050565b7f456c656374696f6e206973206e6f742066696e69736865642079657400000000600082015250565b6000611022601c83610f6f565b915061102d82610fec565b602082019050919050565b6000602082019050818103600083015261105181611015565b9050919050565b600061106382610c4d565b915061106e83610c4d565b925082820261107c81610c4d565b9150828204841483151761109357611092610f0c565b5b5092915050565b7f4e487b7100000000000000000000000000000000000000000000000000000000600052601260045260246000fd5b60006110d482610c4d565b91506110df83610c4d565b9250826110ef576110ee61109a565b5b828204905092915050565b600081905092915050565b50565b60006111156000836110fa565b915061112082611105565b600082019050919050565b600061113682611108565b9150819050919050565b7f5769746864726177616c206661696c6564000000000000000000000000000000600082015250565b6000611176601183610f6f565b915061118182611140565b602082019050919050565b600060208201905081810360008301526111a581611169565b9050919050565b7f4f6e6c79206f7261636c652063616e207265706f72742074686520726573756c60008201527f7400000000000000000000000000000000000000000000000000000000000000602082015250565b6000611208602183610f6f565b9150611213826111ac565b604082019050919050565b60006020820190508181036000830152611237816111fb565b9050919050565b7f57696e6e657220616e64206c6f7365722063616e6e6f7420626520746865207360008201527f616d650000000000000000000000000000000000000000000000000000000000602082015250565b600061129a602383610f6f565b91506112a58261123e565b604082019050919050565b600060208201905081810360008301526112c98161128d565b9050919050565b7f456c656374696f6e2069732066696e6973686564000000000000000000000000600082015250565b6000611306601483610f6f565b9150611311826112d0565b602082019050919050565b60006020820190508181036000830152611335816112f9565b9050919050565b7f596f75206e65656420746f20626574206d6f7265207468616e20300000000000600082015250565b6000611372601b83610f6f565b915061137d8261133c565b602082019050919050565b600060208201905081810360008301526113a181611365565b905091905056fea2646970667358221220047ffc8a994a0e1de9cfa19819f89c5f56f07ccab1690ac5efb1e08753877dd864736f6c634300081b0033",
  "linkReferences": {},
  "deployedLinkReferences": {}
}