{
  "_format": "hh-sol-artifact-1",
  "contractName": "PredictionMarket",
  "sourceName": "contracts/PredictionMarket.sol",
  "abi": [
    {
      "inputs": [
        {
          "internalType": "address",
          "name": "_oracle",
          "type": "address"
        }
      ],
      "stateMutability": "nonpayable",
      "type": "constructor"
    },
    {
      "inputs": [
        {
          "internalType": "enum PredictionMarket.Side",
          "name": "_side",
          "type": "uint8"
        }
      ],
      "name": "bet",
      "outputs": [],
      "stateMutability": "payable",
      "type": "function"
    },
    {
      "inputs": [
        {
          "internalType": "enum PredictionMarket.Side",
          "name": "",
          "type": "uint8"
        }
      ],
      "name": "betsPerCandidate",
      "outputs": [
        {
          "internalType": "uint256",
          "name": "",
          "type": "uint256"
        }
      ],
      "stateMutability": "view",
      "type": "function"
    },
    {
      "inputs": [
        {
          "internalType": "address",
          "name": "",
          "type": "address"
        },
        {
          "internalType": "enum PredictionMarket.Side",
          "name": "",
          "type": "uint8"
        }
      ],
      "name": "betsPerGambler",
      "outputs": [
        {
          "internalType": "uint256",
          "name": "",
          "type": "uint256"
        }
      ],
      "stateMutability": "view",
      "type": "function"
    },
    {
      "inputs": [],
      "name": "electionFinished",
      "outputs": [
        {
          "internalType": "bool",
          "name": "",
          "type": "bool"
        }
      ],
      "stateMutability": "view",
      "type": "function"
    },
    {
      "inputs": [],
      "name": "getAvgBetAmount",
      "outputs": [
        {
          "internalType": "uint256",
          "name": "",
          "type": "uint256"
        }
      ],
      "stateMutability": "view",
      "type": "function"
    },
    {
      "inputs": [
        {
          "internalType": "enum PredictionMarket.Side",
          "name": "_side",
          "type": "uint8"
        }
      ],
      "name": "getBetAmount",
      "outputs": [
        {
          "internalType": "uint256",
          "name": "",
          "type": "uint256"
        }
      ],
      "stateMutability": "view",
      "type": "function"
    },
    {
      "inputs": [
        {
          "internalType": "address",
          "name": "_gambler",
          "type": "address"
        }
      ],
      "name": "getBetAmountByGambler",
      "outputs": [
        {
          "internalType": "uint256",
          "name": "",
          "type": "uint256"
        },
        {
          "internalType": "uint256",
          "name": "",
          "type": "uint256"
        }
      ],
      "stateMutability": "view",
      "type": "function"
    },
    {
      "inputs": [],
      "name": "getTotalBets",
      "outputs": [
        {
          "internalType": "uint256",
          "name": "",
          "type": "uint256"
        }
      ],
      "stateMutability": "view",
      "type": "function"
    },
    {
      "inputs": [],
      "name": "getTotalVolume",
      "outputs": [
        {
          "internalType": "uint256",
          "name": "",
          "type": "uint256"
        }
      ],
      "stateMutability": "view",
      "type": "function"
    },
    {
      "inputs": [],
      "name": "oracle",
      "outputs": [
        {
          "internalType": "address",
          "name": "",
          "type": "address"
        }
      ],
      "stateMutability": "view",
      "type": "function"
    },
    {
      "inputs": [
        {
          "internalType": "enum PredictionMarket.Side",
          "name": "_winner",
          "type": "uint8"
        },
        {
          "internalType": "enum PredictionMarket.Side",
          "name": "_loser",
          "type": "uint8"
        }
      ],
      "name": "report",
      "outputs": [],
      "stateMutability": "nonpayable",
      "type": "function"
    },
    {
      "inputs": [],
      "name": "result",
      "outputs": [
        {
          "internalType": "enum PredictionMarket.Side",
          "name": "winner",
          "type": "uint8"
        },
        {
          "internalType": "enum PredictionMarket.Side",
          "name": "loser",
          "type": "uint8"
        }
      ],
      "stateMutability": "view",
      "type": "function"
    },
    {
      "inputs": [],
      "name": "totalBets",
      "outputs": [
        {
          "internalType": "uint256",
          "name": "",
          "type": "uint256"
        }
      ],
      "stateMutability": "view",
      "type": "function"
    },
    {
      "inputs": [],
      "name": "withdraw",
      "outputs": [],
      "stateMutability": "nonpayable",
      "type": "function"
    }
  ],
  "bytecode": "0x608060405234801561001057600080fd5b50604051611510380380611510833981810160405281019061003291906100dc565b80600460006101000a81548173ffffffffffffffffffffffffffffffffffffffff021916908373ffffffffffffffffffffffffffffffffffffffff16021790555050610109565b600080fd5b600073ffffffffffffffffffffffffffffffffffffffff82169050919050565b60006100a98261007e565b9050919050565b6100b98161009e565b81146100c457600080fd5b50565b6000815190506100d6816100b0565b92915050565b6000602082840312156100f2576100f1610079565b5b6000610100848285016100c7565b91505092915050565b6113f8806101186000396000f3fe6080604052600436106100dd5760003560e01c80639d5a37391161007f578063beab6e7e11610059578063beab6e7e146102c4578063befa1e2f146102ef578063d0821b0e1461031a578063f0706a0614610336576100dd565b80639d5a373914610233578063a3cb679d14610270578063ab6caf1d1461029b576100dd565b80633ccfd60b116100bb5780633ccfd60b14610187578063653721471461019e5780636a70b5e0146101ca5780637dc0d1d014610208576100dd565b80630b9d98e9146100e25780632462958d1461010d57806328b3f3ae1461014a575b600080fd5b3480156100ee57600080fd5b506100f7610361565b6040516101049190610c80565b60405180910390f35b34801561011957600080fd5b50610134600480360381019061012f9190610cc5565b6103e2565b6040516101419190610c80565b60405180910390f35b34801561015657600080fd5b50610171600480360381019061016c9190610cc5565b6103fa565b60405161017e9190610c80565b60405180910390f35b34801561019357600080fd5b5061019c61043b565b005b3480156101aa57600080fd5b506101b36107c0565b6040516101c1929190610d69565b60405180910390f35b3480156101d657600080fd5b506101f160048036038101906101ec9190610df0565b6107ec565b6040516101ff929190610e1d565b60405180910390f35b34801561021457600080fd5b5061021d6108e2565b60405161022a9190610e55565b60405180910390f35b34801561023f57600080fd5b5061025a60048036038101906102559190610e70565b610908565b6040516102679190610c80565b60405180910390f35b34801561027c57600080fd5b5061028561092d565b6040516102929190610c80565b60405180910390f35b3480156102a757600080fd5b506102c260048036038101906102bd9190610eb0565b610937565b005b3480156102d057600080fd5b506102d9610aa3565b6040516102e69190610f0b565b60405180910390f35b3480156102fb57600080fd5b50610304610ab6565b6040516103119190610c80565b60405180910390f35b610334600480360381019061032f9190610cc5565b610abc565b005b34801561034257600080fd5b5061034b610c4b565b6040516103589190610c80565b60405180910390f35b60006002600060018081111561037a57610379610cf2565b5b600181111561038c5761038b610cf2565b5b815260200190815260200160002054600260008060018111156103b2576103b1610cf2565b5b60018111156103c4576103c3610cf2565b5b8152602001908152602001600020546103dd9190610f55565b905090565b60026020528060005260406000206000915090505481565b60006002600083600181111561041357610412610cf2565b5b600181111561042557610424610cf2565b5b8152602001908152602001600020549050919050565b6000600360003373ffffffffffffffffffffffffffffffffffffffff1673ffffffffffffffffffffffffffffffffffffffff16815260200190815260200160002060008060000160009054906101000a900460ff1660018111156104a2576104a1610cf2565b5b60018111156104b4576104b3610cf2565b5b815260200190815260200160002054905060008111610508576040517f08c379a00000000000000000000000000000000000000000000000000000000081526004016104ff90610fe6565b60405180910390fd5b60011515600160009054906101000a900460ff1615151461055e576040517f08c379a000000000000000000000000000000000000000000000000000000000815260040161055590611052565b60405180910390fd5b6000600260008060000160009054906101000a900460ff16600181111561058857610587610cf2565b5b600181111561059a57610599610cf2565b5b81526020019081526020016000205482600260008060000160019054906101000a900460ff1660018111156105d2576105d1610cf2565b5b60018111156105e4576105e3610cf2565b5b8152602001908152602001600020546105fd9190611072565b61060791906110e3565b826106129190610f55565b90506000600360003373ffffffffffffffffffffffffffffffffffffffff1673ffffffffffffffffffffffffffffffffffffffff168152602001908152602001600020600080600181111561066a57610669610cf2565b5b600181111561067c5761067b610cf2565b5b8152602001908152602001600020819055506000600360003373ffffffffffffffffffffffffffffffffffffffff1673ffffffffffffffffffffffffffffffffffffffff16815260200190815260200160002060006001808111156106e4576106e3610cf2565b5b60018111156106f6576106f5610cf2565b5b81526020019081526020016000208190555060003373ffffffffffffffffffffffffffffffffffffffff168260405161072e90611145565b60006040518083038185875af1925050503d806000811461076b576040519150601f19603f3d011682016040523d82523d6000602084013e610770565b606091505b5050905060011515811515146107bb576040517f08c379a00000000000000000000000000000000000000000000000000000000081526004016107b2906111a6565b60405180910390fd5b505050565b60008060000160009054906101000a900460ff16908060000160019054906101000a900460ff16905082565b600080600360008473ffffffffffffffffffffffffffffffffffffffff1673ffffffffffffffffffffffffffffffffffffffff168152602001908152602001600020600080600181111561084357610842610cf2565b5b600181111561085557610854610cf2565b5b815260200190815260200160002054600360008573ffffffffffffffffffffffffffffffffffffffff1673ffffffffffffffffffffffffffffffffffffffff16815260200190815260200160002060006001808111156108b8576108b7610cf2565b5b60018111156108ca576108c9610cf2565b5b81526020019081526020016000205491509150915091565b600460009054906101000a900473ffffffffffffffffffffffffffffffffffffffff1681565b6003602052816000526040600020602052806000526040600020600091509150505481565b6000600554905090565b600460009054906101000a900473ffffffffffffffffffffffffffffffffffffffff1673ffffffffffffffffffffffffffffffffffffffff163373ffffffffffffffffffffffffffffffffffffffff16146109c7576040517f08c379a00000000000000000000000000000000000000000000000000000000081526004016109be90611238565b60405180910390fd5b8060018111156109da576109d9610cf2565b5b8260018111156109ed576109ec610cf2565b5b03610a2d576040517f08c379a0000000000000000000000000000000000000000000000000000000008152600401610a24906112ca565b60405180910390fd5b816000800160006101000a81548160ff02191690836001811115610a5457610a53610cf2565b5b0217905550806000800160016101000a81548160ff02191690836001811115610a8057610a7f610cf2565b5b021790555060018060006101000a81548160ff0219169083151502179055505050565b600160009054906101000a900460ff1681565b60055481565b60001515600160009054906101000a900460ff16151514610b12576040517f08c379a0000000000000000000000000000000000000000000000000000000008152600401610b0990611336565b60405180910390fd5b60003411610b55576040517f08c379a0000000000000000000000000000000000000000000000000000000008152600401610b4c906113a2565b60405180910390fd5b3460026000836001811115610b6d57610b6c610cf2565b5b6001811115610b7f57610b7e610cf2565b5b81526020019081526020016000206000828254610b9c9190610f55565b9250508190555034600360003373ffffffffffffffffffffffffffffffffffffffff1673ffffffffffffffffffffffffffffffffffffffff1681526020019081526020016000206000836001811115610bf857610bf7610cf2565b5b6001811115610c0a57610c09610cf2565b5b81526020019081526020016000206000828254610c279190610f55565b92505081905550600160056000828254610c419190610f55565b9250508190555050565b6000600554610c58610361565b610c6291906110e3565b905090565b6000819050919050565b610c7a81610c67565b82525050565b6000602082019050610c956000830184610c71565b92915050565b600080fd5b60028110610cad57600080fd5b50565b600081359050610cbf81610ca0565b92915050565b600060208284031215610cdb57610cda610c9b565b5b6000610ce984828501610cb0565b91505092915050565b7f4e487b7100000000000000000000000000000000000000000000000000000000600052602160045260246000fd5b60028110610d3257610d31610cf2565b5b50565b6000819050610d4382610d21565b919050565b6000610d5382610d35565b9050919050565b610d6381610d48565b82525050565b6000604082019050610d7e6000830185610d5a565b610d8b6020830184610d5a565b9392505050565b600073ffffffffffffffffffffffffffffffffffffffff82169050919050565b6000610dbd82610d92565b9050919050565b610dcd81610db2565b8114610dd857600080fd5b50565b600081359050610dea81610dc4565b92915050565b600060208284031215610e0657610e05610c9b565b5b6000610e1484828501610ddb565b91505092915050565b6000604082019050610e326000830185610c71565b610e3f6020830184610c71565b9392505050565b610e4f81610db2565b82525050565b6000602082019050610e6a6000830184610e46565b92915050565b60008060408385031215610e8757610e86610c9b565b5b6000610e9585828601610ddb565b9250506020610ea685828601610cb0565b9150509250929050565b60008060408385031215610ec757610ec6610c9b565b5b6000610ed585828601610cb0565b9250506020610ee685828601610cb0565b9150509250929050565b60008115159050919050565b610f0581610ef0565b82525050565b6000602082019050610f206000830184610efc565b92915050565b7f4e487b7100000000000000000000000000000000000000000000000000000000600052601160045260246000fd5b6000610f6082610c67565b9150610f6b83610c67565b9250828201905080821115610f8357610f82610f26565b5b92915050565b600082825260208201905092915050565b7f596f7520646f6e2774206861766520616e792077696e6e696e67206265740000600082015250565b6000610fd0601e83610f89565b9150610fdb82610f9a565b602082019050919050565b60006020820190508181036000830152610fff81610fc3565b9050919050565b7f456c656374696f6e206973206e6f742066696e69736865642079657400000000600082015250565b600061103c601c83610f89565b915061104782611006565b602082019050919050565b6000602082019050818103600083015261106b8161102f565b9050919050565b600061107d82610c67565b915061108883610c67565b925082820261109681610c67565b915082820484148315176110ad576110ac610f26565b5b5092915050565b7f4e487b7100000000000000000000000000000000000000000000000000000000600052601260045260246000fd5b60006110ee82610c67565b91506110f983610c67565b925082611109576111086110b4565b5b828204905092915050565b600081905092915050565b50565b600061112f600083611114565b915061113a8261111f565b600082019050919050565b600061115082611122565b9150819050919050565b7f5769746864726177616c206661696c6564000000000000000000000000000000600082015250565b6000611190601183610f89565b915061119b8261115a565b602082019050919050565b600060208201905081810360008301526111bf81611183565b9050919050565b7f4f6e6c79206f7261636c652063616e207265706f72742074686520726573756c60008201527f7400000000000000000000000000000000000000000000000000000000000000602082015250565b6000611222602183610f89565b915061122d826111c6565b604082019050919050565b6000602082019050818103600083015261125181611215565b9050919050565b7f57696e6e657220616e64206c6f7365722063616e6e6f7420626520746865207360008201527f616d650000000000000000000000000000000000000000000000000000000000602082015250565b60006112b4602383610f89565b91506112bf82611258565b604082019050919050565b600060208201905081810360008301526112e3816112a7565b9050919050565b7f456c656374696f6e2069732066696e6973686564000000000000000000000000600082015250565b6000611320601483610f89565b915061132b826112ea565b602082019050919050565b6000602082019050818103600083015261134f81611313565b9050919050565b7f596f75206e65656420746f20626574206d6f7265207468616e20300000000000600082015250565b600061138c601b83610f89565b915061139782611356565b602082019050919050565b600060208201905081810360008301526113bb8161137f565b905091905056fea2646970667358221220596c82da8be5207a5d2b25bf2de558a65cdfdf27a167eab7fee94dba71df1af464736f6c634300081b0033",
  "linkReferences": {},
  "deployedLinkReferences": {}
}